:1009D3002A2A42414C4C2D434F554E5445522A2A04
:0109E3000013
:10091D0001090101100201080F010D80010EC00136
:10092D001110010C14010B1801121C010A08010F02
:01093D000CAD
:10098100E4FDFCC3ED9FEC9E5015E4FBFA0BBB00AC
:0F099100010AEB64354A70F50DBD00010C80E4DE
:0109A0002234
:0C09E400D2A47F047E00120981C2A4226C
:10093F00A90775A080C2A4C2A6E954F0FFC4540F42
:10094F004480F5A01209E4E9540F4480F5A0020990
:01095F00E4B3
:1009A100C2A4C2A675A0821209E4AF0912093FAF21
:0909B1000812093FAF1002093FD2
:10096000A90775A0C0C2A4D2A6E954F0FFC4540FD1
:1009700044C0F5A01209E4E9540F44C0F5A00209EF
:01098000E492
:0608C3008B148A15891652
:1008C900E4F517AB14AA15A9161209BAFF60171295
:1008D900096074012516F516E43515F5150517E5B2
:0608E90017C3941040DD6E
:0108EF0022E6
:0208F0008F1463
:1008F200E51475F00A84F5157FC712093FE5152442
:1009020030FF120960E51475F00A8485F0157FC87E
:0B09120012093FE5152430FF020960C8
:10088C00E4F5131209A1AF0D12093F7BFF7A097928
:10089C00D31208C3AF0F12093FAF131208F0209701
:1008AC00120513AF131208F0C2A77FE87E031209DA
:0708BC008180EBD2A780E769
:03000000020800F3
:0C080000787FE4F6D8FD758117020847E8
:1009BA00BB010689828A83E0225002E722BBFE023B
:0909CA00E32289828A83E493226E
:10080C0002088CE493A3F8E493A34003F68001F26E
:10081C0008DFF48029E493A3F85407240CC8C333ED
:10082C00C4540F4420C8834004F456800146F6DFBC
:10083C00E4800B010204081020408090091DE47E26
:10084C00019360BCA3FF543F30E509541FFEE493B1
:10085C00A360010ECF54C025E060A840B8E493A378
:10086C00FAE493A3F8E493A3C8C582C8CAC583CAA3
:10087C00F0A3C8C582C8CAC583CADFE9DEE780BE5B
:01093E0000B8
:00000001FF
